:20000000003C0120C127010039FB021039FB021039FB021039FB021039FB021039FB0210F6
:1C00200039FB021039FB021039FB021039FB021039FB021039FB021011FB021002
:20003C002DE9F04FBE4D4FF0FF30686000272F604FF0020AC5F808A0ADF1240DEF6010205A
:20005C0016F0C6FF286140B1076005F1140141602C69876005F15006E6608CA068610826FB
:20007C00EE614FF0FF34AC6140202D6216F0B0FF05F114043946AB4B686218B1CA0087503B
:20009C0082185360491C0829F7DB83A028650326AE654FF0FF336B651820ED6516F098FF3B
:2000BC00002828660AD080A101609F49416080A28260C16002D080A202614161AF624FF01B
:2000DC00010BC5F830B04FF0FF30E86208206C6316F07EFFA86318B1076005F13C0141601A
:2000FC0077A00626E8634FF0FF346E6405F128032C643020AB6416F06BFF0646002EEE64C6
:20011C0018D075A030608948706075A1B160F06010D075A1316177A2706106F11804226017
:20013C00F06107D075A1316279A2706206F128042260F06217F0E2FB12F0BAFF061C00F03D
:20015C004D8515F0D5FB7A498446384631F80C4F002C40F03F854FF6F8720A804E60754C85
:20017C0020708F607068E060604616F057FA04F140063946304617F0BDFB6F4841F288323C
:20019C003B4626616D49009004F14C0013F09AF86B4E6C493A46152306F12B000090102017
:2001BC0008F000FD684910203A46534608F0FAFC4FF480605946324605F0F8FF40F20240AC
:2001DC005946721C05F0F2FFB21C40F20340594605F0ECFFF21C40F20640594605F0E6FF2F
:2001FC00321D40F21140594605F0E0FF721D40F20D40594605F0DAFFB21D40F21240594631
:20021C0005F0D4FFF21D40F20C40594605F0CEFF06F108024FF48360594605F0C7FF06F194
:20023C00090240F20740594605F0C0FF06F10A0240F21440594605F0B9FF06F10B0240F2C0
:20025C001540594605F0B2FFD94910204FF0FF3208F0A8FCD74910204FF0FF3208F0A2FC34
:20027C001020DFF854930090D54AD448132349460190102008F096FC202016F0A9FE014665
:20029C00D0488046816000296FD05FE0576F726B207769746800C046536574204175746F72
:2002BC00436F6E6E6563740044697361626C650047726F757020410047726F7570204200C7
:2002DC0053657420436F6E6E2050485920507265666572656E63650031204D62707300C055
:2002FC0032204D62707300C03120262032204D62707300C0436F64656400C0463120262087
:20031C0032204D6270732C202620436F646564004175746F20504859206368616E6765003C
:20033C00FC2E00201D3A0100458D000069B50000A8180020B4110020BD1F0020954B01006D
:20035C00FC18002019180100753C01004FF6F870C01D14F00DFBCB49102008F114020090F0
:20037C0011230191494608F01DFC03238DF818A058468DF8193004228DF81700C2498DF8DA
:20039C001A200DF10E0338460A6809791A600DF11702197159460CF0ABFE5846594606AA3A
:2003BC000CF0A6FE504659460DF119020CF0A0FE032059460DF11A020CF09AFE04200521DF
:2003DC000DF10E020CF094FE04F1140004F13802AE49C8F80400102008F0E4FB207814F0CF
:2003FC0007FFAB490246102008F0DCFB207814F0FFFEA8490246102008F0D4FBA6491020B8
:20041C00FB2240F6480308F0CDFBA449102008F0C9FBDFF88C9209F1180009F10C010DF07E
:20043C0087FDA049C9F8080016F0A6FCDFF87882D9F808004FF4E0214246521E14F02EF9B1
:20045C00D9F808004FF4E021424614F027F9DFF83883D9F808004FF0C0514246521E14F000
:20047C001DF9D9F808004FF0C051424614F016F9B84609F12400C8223B46C649CDF80080AB
:20049C0012F020FFC4484FF6F877C9F80400781D10F046FE207814F0ABFE0C3603460422CB
:2004BC005046BE4900901020019608F07BFB04F1E40704F1E400C0220890414638460FF087
:2004DC00BEFF4FF6F876F61D0820401E27F8186BFBD14FF0FF30414611F02CFDA0604146E3
:2004FC004FF0FF32C9A02860284615F08DF9A068DFF82C9358B1AF684FB1494607270861A2
:20051C00CD4E0F702846CE6014F08CF9A0684D4629784246CCA314F0F6FFE06800214FF02C
:20053C0040424FF0FF3317F0E1F95FEA000BF4D0002002900DF1160102AA03A814F0B8FBDE
:20055C00002840F0A481BDF80C00102840F09B8120789DF81610884240F09581029908882F
:20057C004FF6FF72824200F08E810E46307891382AD01F3803D0203800F0828183E13379A2
:20059C00A0682A787E2B04D07F2B0AD10989B4A301E0317AB6A30091521CD1B2002214F01D
:2005BC00B2FF317906F1080017F09CF96BE1C0467959010069410100E9520100AC970100D9
:2005DC00841000208C14002070780E3841D0401E26D0401E00F032812E3840F05481B07864
:2005FC000C2840F05081F778A068297887B9F279012A08D0022A08BFC6A205D0032A0CBFBC
:20061C00C5A2C7A200E0CCA20092891CCBA301E0491CCFA3C9B2002214F075FF0C2014E00E
:20063C00B08842F23201814240F02D81B278A06829781A2A1ABF0092CAA3D2A3491C002273
:20065C00C9B214F060FF42F2320031460FF03AFC19E1B168B788087841F20542BF1A25D074
:20067C00A7F62B47002F40F00E81002840F00B81C878009008790190A1682878D5A38E46A6
:20069C00C01DC1E0B8970100799801002D5A0100D96C02102D6D02100D520210397F011099
:2006BC00EC1A0020A14501000E000580B168491C91F902A0002840F0E6804A78087800EBE9
:2006DC00022015F0BDFD95F800C0D4F808E00746082F80F2A780BAF17F0F00F0888008982E
:2006FC00F90001EB07114618727C531C73748A18121882F80CA0727C4FF005084346401832
:20071C000C30002192FBF3F303FB08F3D21A4346727410F9012B5B1E0A4411B2F9D140468A
:20073C0091FBF0F040B2B074F37C002B5FD110F11F0F4FF0000904DD337D022B18BF002B1A
:20075C002ED196F9120010F11E0F07DA10F1290F04DD337D012B18BF002B17D110F1330FAB
:20077C0004DD10F1280F42DA337D33B910F1320F3DDA04224FF0020913E004224FF0010961
:20079C004FF006080FE0C0460E0000104FF00108424608E0A5670100875C0100559C000043
:2007BC0002224FF00208737D984502D1B07D022801DB98451BD0308811464B4613F0C2FFB1
:2007DC000120F074707D80451CBF0020B075B9F1000F06D0B9F1010F14BF4FF002084FF002
:2007FC00060886F81580D4F808E095F800C0F8000899CDF800A000EB0710401890F91200C8
:20081C00CAA301900CF105000FE0C04653696D706C65205065726970686572616C00C0462B
:20083C00D01D00200CF10100C8A3C1B27046002214F069FE27E0C04671C8000008200021E1
:20085C0007F0AEFD1FE0C0463D3D3D3D3D3D3D3D3D3D3D3D3D3D3D3D3D3D3D3D00C046C04B
:20087C004D54552053697A653A20256400C046C046432056696F6C617465643A202564003E
:20089C00084601F01BFE029808B116F061FB5FEADB70FFF442AE206917F020F800287FF475
:2008BC003CAE2069064617F015F8864208BF002602D0866814F076F8002EECD03078401E72
:2008DC00082800F27F81DFE810F05801EF00C900A5008F0075007B017501090070684788B7
:2008FC00384615F0ADFCA1682A7808280EDA089BC10001EB0011C918C87D012840F062812A
:20091C00B9493A46102008F04DF95BE1571C8FA39CE0C046324D00C0434F44454400C046C4
:20093C00556E6578706563746564205048592056616C756500C046C0314D00C05048592043
:20095C005570646174656420746F20257300C046504859204368616E6765206661696C756B
:20097C00726500C05048592055706461746520537461747573204576656E743A2030782563
:20099C007800C046504859204368616E6765206661696C7572652C207065657220646F650E
:2009BC0073206E6F7420737570706F7274207468697300C002200DF11B0113F043F80028C0
:2009DC0040F00081032001210DF11B020CF090FBF8E0C046525850683A2025642C20545848
:2009FC0050683A20256400C07768787A48B17F4800902978A06800227DA3C91CC9B214F010
:200A1C0082FD7A480090BA49FA880023102008F0C9F8D7E072681079A1682F781278DAB179
:200A3C00521E10D0521E08D0521E40F0CB8000280EBF73A3009077A307E0002808BF7BA36E
:200A5C0003D07FA305E018B983A3FF1C8846ABE085A3FF1C8846A6E088A3F6E77768A268AD
:200A7C0028783968491E0CD0491E08D00E3912D179680B780093498884A3019105E08CA3D8
:200A9C0000E090A3796809780091001DC1B21046002214F038FD3868B0F1004F00F0928061
:200ABC00786813F07FFF8DE070680078010923D24009C0F087800E2015F098FE002840F0DC
:200ADC0081806A68A8689168814213D0B0F1FF3F78D0116951F830702FB901EBC0014868A9
:200AFC0013F0A0FE6EE0116901EBC0014968C0B2884767E0D068F3E70D2015F077FE0028AA
:200B1C0060D16968A8688968814208D0B0F1FF3F09D0401C14F098F8B0F1FF3F02D10020A1
:200B3C0014F092F8A8600AF0F9FF4BE0525353493A25642064426D2C20415647205253536D
:200B5C00493A25642064426D00C046C0436F6E6E656374696F6E2068616E646C65206973DC
:200B7C00206E6F7420696E2074686520636F6E6E4C6973742021212100C070682F78D4F898
:200B9C00088000787F1C38B1801E1BD1022007A912F058FF50A304E0002007A912F052FF06
:200BBC0050A39DF81C000090F9B24046002214F0AAFC07E07068B0F801000BF0B3FE05E0EF
:200BDC0011F0FAFA706808B113F0ECFE304613F0E9FE60E6401C0628FFF4B8AA16F02AFAD7
:200BFC0009B0BDE8F08FC0460D2B021040E2010050617373636F64653A20256400C046C0AE
:200C1C00426F6E642073617665207375636365737300C046426F6E6420736176652066610E
:200C3C00696C65643A20256400C046C0456E6372797074696F6E207375636365737300C04D
:200C5C00456E6372797074696F6E206661696C65643A20256400C04650616972696E6720F5
:200C7C00737563636573730050616972696E67206661696C3A20256400C046C050616972A4
:200C9C00696E67207374617274656400416476205365742025642064697361626C6564205B
:200CBC00616674657220636F6E6E20256400C0464164762053657420256420446973616276
:200CDC006C6564004164762053657420256420456E61626C656400C04368617220333A20FD
:200CFC00256400C04368617220313A20256400C0C94B010038B586B004468DF805104FF6BC
:200D1C00FF720120ADF80220090ADFF8E058ADF8000002238DF806108DF8043069462A78CD
:200D3C00204616F0D3FD162803D12978204616F0C9FD07B030BD3EB504000D461ED0DFF8C3
:200D5C00B0080068224616F0B9FDFF2815D000200090002301AA294620460CF06DFD60B955
:200D7C009DF8040000F0F0F8C00606D59DF8040000F0EAF810F0040000D001203EBDFEB537
:200D9C00164615244FF6FF7290420D4615D100208DF80400DFF854789DF80400B979884200
:200DBC001AD23246294600F03AF800B100249DF80400401C8DF80400EEE716F07BFD50B17B
:200DDC0000F0FEFA40B99DF804003246294600F026F8002400E014242046FEBD7CB50D46A7
:200DFC00044606214C43164600F081F8A8B900F079F890B99DF80700002E14BF054320EA18
:200E1C000505E9B2814206D08DF807506A460821E0B214F0A9FC012076BD002076BD2DE9CB
:200E3C00FC410646344606235C438846154600F05EF8002853D100F055F800284FD1DFF8B4
:200E5C00AC77F879800015F089FE040003D1042014F0C0FA43E0F979703689062246090ED3
:200E7C00F0B214F059FC002835D1204600F058F85FEA08000ED1FA799206120E00212046A5
:200E9C0015F0D1F838BBFA7992000021204615F0FDFC16E0214600F030F858B9280004D069
:200EBC002146002000F029F810B900F0A0F916E0A0F800808178A9420DD085700DB9002181
:200EDC000180204600F02CF8F97989062246090EF0B214F049FC00F08AF9012000E00020FC
:200EFC00BDE8F6810622FF21684615F09CB820346A460821E0B214F00FBC70B5DFF8EC36BF
:200F1C00DD79002200E0521CD4B2AC4206D231F824608642F7D101EB840070BD002070BD7C
:200F3C0010B50021DFF8C4260AE030F82130DB4320F8213000EB8103491C9C78E4439C70E9
:200F5C00D3799942F1DB10BDE0B50623584320306A460821C0B214F0DFFB10B99DF807007E
:200F7C000EBD00200EBDDFF88406007808210BF0A7BD38B50025DFF8744619E0E069062330
:200F9C0013FB05F300EBC50220330821D8B214F0C3FB58B1E0690622FF2100EBC50015F066
:200FBC0075FCE06900EBC5010022CA716D1CEDB2A1798D42E2DBA07C10B1BDE8314034E276
:200FDC0031BDF8B5DFF82416DFF8283689791E680C460A4600E02A46D5B23DB1551ED2B22E
:200FFC00324412F8017C8742F5D12C46E4B220464D1E07E01718165C7F7817541A680244BE
:20101C00401C5670A8421A68F4DBAC4204DABDE8F840052014F0A8BBF1BD38B50020002443
:20103C00DFF8C85503E0E0B200F008F8641CAA79E1B2914201D20100F5D032BD2DE9F84F4D
:20105C0083465D46062313FB05F58EB005F1200701AA0821F8B214F05FFB002874D106220B
:20107C00FF2101A814F0DFFF00286DD1DFF87C65F079800015F072FD5FEA000904D10420E3
:20109C0014F0A8F90A2061E01C22FF2103A815F0FDFBF2799200FF21484615F0F7FB05F186
:2010BC0023040AAA1021E0B214F036FB60B91022FF210AA814F0B7FF30B99DF80A0001A938
:2010DC0000F0010016F0F2FB082200F042F801AA0821F8B214F048FB8DF8000003AA05F1CF
:2010FC00210000F03AF8074605F1220003AA00F034F8804603AA1021E0B214F035FB0446AF
:20111C0005F1240003AA102100F028F88246253503AA0421E8B248EA070714F025FB27434F
:20113C00F1799DF800504AEA0707074389060BF170034A46090ED8B214F016FB074348469C
:20115C0015F014FD3D4300E0002528460FB0BDE8F08FFF2101A815F099BB1C21C0B214F0B2
:20117C0003BB2DE9F84187B0FF208DF80000DFF87C54A87915F0F2FC040004D1042014F0AF
:20119C0029F90A2030E01022FF2103A815F07EFBAA79FF21204615F079FB0622FFF7D9FF44
:2011BC0003AA1021022014F0DFFA064603AA1021032014F0D9FA06436A460121042014F0CF
:2011DC00D3FA0746A9792246052014F0CDFA054601AA0621062014F0C7FA804600F007F8A2
:2011FC003E432E4348EA060008B0BDE8F081204615F0BCBCDFF8F4134088097814F028BAEB
:20121C00F0B5A9B006460D46144616F053FB08B91420AAE0A4220021684615F037FBADF877
:20123C0000600DF12607DFF8C463F078717B8DF80400B07B8DF8A000279861F30000717BDD
:20125C0027908A074CBF0222002220F0020010432790CA064CBF4FF48072002220F4807087
:20127C00104327908A064CBF4FF40072002220F40070104327904A064CBF4FF480620022A6
:20129C0020F480601043279049074CBF0421002120F0040008432790F07B02280CBF0120FC
:2012BC000020787416F0FEFA412807DBF07B00B108209DF8991008438DF89900307CB8B1BD
:2012DC000121B974202206F188010DF1390015F0D3FA202206F1A8010DF1590015F0CCFAD4
:2012FC00202206F1C8010DF1790015F0C5FA00E0B874307B8DF8050088B1BF4F102207F1E3
:20131C0010010DF1060015F0B7FA9DF89900082805D1102239460DF1160015F0ADFAF07AD7
:20133C008DF8260028B11022B4490DF1270015F0A3FA307948B1022D18BF032D03D12798AC
:20135C0040F002002790012100E000219DF899000143B0788DF8991000B1042001438DF8FF
:20137C0099106846214616F099FA29B0F0BD2DE9FC41154615244FF6FF72904288460DD159
:20139C0000279A4EB179F8B2884216D22A464146FFF724FD00B100247F1CF3E716F08AFABA
:2013BC0050B100F00DF840B99DF804002A464146FFF714FD002400E014242046BDE8F681CD
:2013DC00002100910023417901AA01F00101801D0CF032BA70B504460D4606204543082B9C
:2013FC0088B0164603D1300758BF223500D521351C220021FFF7AEFE01AA1C21E8B214F012
:20141C008BF980B99DF81E00C01F0A280BD29DF830000090F20801AB02F0010206F001016A
:20143C00204616F037FA08B070BD38B516F02EFA00246E4D0FE0E8690622FF2100EBC400DD
:20145C0014F0F1FD28B9E86900EBC401002016F019FA641CE4B2A8798442ECDB31BD3EB5BE
:20147C000C46002501460095002301AA20460CF0E3F938B99DF80400FFF766FDC00601D473
:20149C0001203EBD00203EBDF8B506460F4615460C2015F063FB040019D02681A7720020F4
:2014BC002060E07245B10821284614F0F3FE606018B9FFF79CFE0BE060605148016811B924
:2014DC00046004E0014608680028FBD10C600CB91520F2BD0120E0722A4639463046FFF71A
:2014FC008FFE04464148806900281CBF4368002B03D000220021304698472046F2BD38B541
:20151C0005463F48046803E02089A84204D02468002CF9D1012032BDE07A012807D100F04A
:20153C0059F820B13148007804210BF0C9FAE17A491CE1722846C9B200F002F8002032BDA4
:20155C0038B502290446294D02D003290DD01EE042F6C921FFF7CEFB02001CBFA8690028C7
:20157C0018D04368B3B105210CE042F6A621FFF7C1FB01001CBFA96900290BD04B684BB1F4
:20159C0002460421204601B0BDE830401847BDE8324000E031BD10B5194B1968002201E0A5
:2015BC000A46096851B10C898442F9D10868002A0CBF18601060084615F0D8FA002010BDC8
:2015DC00024604200E49096819B10B899342FAD1C87A70470A48006828B1006818B1C17AC5
:2015FC000029FAD17047002070470000BC160020680F00208C330020B4300020E4300020AD
:20161C009033002038B5264C049D2070E2712372A1716572C80015F0A1FAE061D8B1A2791D
:20163C00D200002115F032F9A07915F097FA206208B9E0690DE0A2791A4D002115F026F97C
:20165C00A07915F08BFA286050B9E06915F08EFA206A15F08BFABDE83240042013F0BABE9A
:20167C00A279002115F012F904F1E80016F006F92178062012F0F0FAFFF77BFC2A68A1795C
:20169C00052014F049F848B1A179002004E02B680A1A521E1A54401C8842F8DB31BD00BF72
:2016BC00BC1600208C3300202DE9F84F054688B0A978DFF83C67002710294FF0060A3CD8FF
:2016DC00DFE811F0110092039203920392033C00CF0092039203F50215010001470392039F
:2016FC00CB020D038A036878002826D116F0C2F8044616F0BBF8054616F0B4F88DF8000020
:20171C0022461021022014F02FF82A461021032014F02AF86A460121042014F025F89DF831
:20173C000000012818BF032807D1012016F096F802460621062014F017F855E368780028ED
:20175C00FBD195F80CB06C8900900023E97801AA01F00101281D0CF06FF800284FF0010899
:20177C0075D19DF80400FFF7EFFB8146BBF1080FF07908BFB846800015F0F0F9050003D18F
:20179C00042013F027FE2FE370789DF8041002280CBF0120002000905B464A462046FFF7EB
:2017BC0019FE1422002102A815F070F89DF804001AFB00F0243002AA1021C0B213F0ACFF99
:2017DC00B0B91022FF2102A814F02DFC80B99DF804001AFB00FA0AF1250306AA0421D8B2F8
:2017FC0013F09AFF02AA09F00101204616F032F8F1799DF80400890670302A46090EC0B2C9
:20181C0013F08AFF98B92846FFF78AFBBA4609E005EB8000018819B18278204614F086FA56
:20183C000AF1010AF1795FFA8AF08842F0D3707A30B95FEA897003D53178204613F008FFB6
:20185C009DF80400FFF7BDFB284615F08FF97078022805D1B8F1000F02D0204610F0DAFA7E
:20187C00C2E2A888FFF797FE15F0F0FF0028F7D1F07C012808D1FFF7D0FB306AF7740422AF
:20189C00002115F003F817E0307D012803D1FFF768FC377510E000240AE0306AE5B2415D97
:2018BC00012904D1E0B2FFF7C9FB316A4F55641CE0B2B1798842F0D3502014F017FBFFF73D
:2018DC0058FB91E215F0BEFF00280CD0B06900281CBF0468002C07D0286900906B7B2A7B29
:2018FC006989E81CA0477EE26889012171E26878002840F0EB80A879C10740F1E7800822DB
:20191C00002105A814F0C2FFA88815F0D3FF04006FD0D5F81480B8F1000F27D00622002175
:20193C0008F1110014F07FFB58B306220021404614F079FBC8B998F8100000F00109BB4695
:20195C000BF1010B88F811B0009700230022494608F111000BF070FF00285FFA8BF002D174
:20197C000028EDD101E000280BD16F61607900F001008DF81A000622A11D05A814F07CFF35
:20199C0024E0D5F81480B8F1000F1FD098F8100000F001008DF81A00062208F1110105A80F
:2019BC0014F06AFF6079012805D10622A11D04F10C0014F061FF062208F11101A01D14F087
:2019DC005BFF98F8100040F002006071A879410720794CBF40F0020000F0FD002071A87910
:2019FC00010720794CBF40F0200000F0DF00207106E0FFF7EFFD18B1307804210BF060F8BE
:201A1C00A9799DF81B00890801F0010108438DF81B00A97900970A074CBF082100210843FF
:201A3C008DF81B0000239DF81A1004AA05A80BF003FFF0B1002400E0641CB179E0B2884205
:201A5C000AD2F069E3B20622FF2100EBC30014F0EAFA0028F0D009E0DFF8982310780028AF
:201A7C001DBFDFF89413086804780C468DF8104019E06869B8B19DF810001AFB00F02330AD
:201A9C006A461021C0B213F047FE60B91022FF21684614F0C8FA30B99DF81A0005A900F07A
:201ABC00010015F003FF9DF81000B179884280F0D280F079800015F051F804001DD104205A
:201ADC0013F088FC0A27A888FFF765FDB06900281CBF4368002B0FD06A78A88801219847C6
:201AFC006878002808D1A879C10705D5B369A8885C683A460321A04775E19DF810001AFB7B
:201B1C0000F0203005AA0821C0B213F02DFE9DF81000FFF756FAF2799200FF21204614F07F
:201B3C00B5FEF1799DF81000890670302246090EC0B213F019FEF0699DF81030082205A987
:201B5C0000EBC30014F098FE6A6992B1107C002302F1110100F0010015F070FE6A6942B12D
:201B7C009DF810001AFB00F023301021C0B213F0FBFDAA6842B19DF810001AFB00F02130AE
:201B9C001C21C0B213F0F0FD2A6942B19DF810001AFB00F022301C21C0B213F0E5FDEA6822
:201BBC00AAB19DF810001AFB00F024301021C0B213F0DAFDE86800F110029DF810001AFB26
:201BDC0000FA0AF125030421D8B213F0CDFDB07C08B1FFF72AFCB5F80480706A4FF6FF7987
:201BFC0048B906F1160100910223844A4946012015F020FE7062716A11B3FF20039002221C
:201C1C000292019707A800900DF11203F28A404605F05AF968B99DF812009DF8131000EB75
:201C3C00012290B228B1706A418992B24046FFF7A6F8F28A706A0023494615F0F7FD706275
:201C5C00204614F093FF307A0028A8887FF43CAFFFF755FC3AE7152735E7687806281BD152
:201C7C00A88815F027FEB8B1717C012904D013D3032907D00CD30FE04179A8880022FFF7E1
:201C9C0003FC09E00022002140F2094004F08EFAA888052115F0C6FDB06900281CBF436821
:201CBC00002B03D06A78A888022198479BE000970023E97801AA01F00101281D0BF0BCFDC9
:201CDC000028F3D19DF804001AFB00FA0AF1250305F10C020421D8B213F046FD83E0B069BC
:201CFC0000281CBF4368002B03D0A888002200219847707810B9A88805216AE0A88815F044
:201D1C00D9FD040070D0A87AC10712D5009700236179002201F00101A01D0BF08DFD0028A9
:201D3C001EBF60790028012803D0E868C0F3402028B1F07B022807D1A87A010704D4A888D2
:201D5C00032115F06BFD4FE06179A88805F1080227E02F7BAD88284615F0ACFD040042D085
:201D7C0015F070FD00283ED100900023617901AA01F00101A01D0BF05FFD28BB9DF80400E3
:201D9C00FFF7E2F807F00C07042F11D0082F0BD00C2F0FD100F0090109290BD06179002209
:201DBC002846FFF771FB1EE010F0090F02D1F5E7C107F3D501220092A37C9DF8041002461D
:201DDC002846FFF707FB0EE070780028E6D10521284615F023FD06E0FFF7FCFB18B13078CF
:201DFC0004210AF06DFE0127384609B0BDE8F08FBC160020F33300208C33002034930100DB
:201E1C002DE9F84F012012F069FE012816D1DFF860663078002115F0FDFC040004BF002064
:201E3C0013F0D8FA00202072201D0BF0F1FB15F0EDFC050003D1812015F0E4FC13E3012077
:201E5C00687105F59777DFF82C06DFF82C264178491C4170A879A0724020317811700BF0CC
:201E7C007BFB2860616D4A78206DD10619D5816C0A681179032904D00CBF0120002013F06E
:201E9C00A9FA206D816C90F86C000A6802F1080A01281CBF002013F09DFA216D486F29680A
:201EBC003CE0C16E0A681179032904D00CBF0120002013F08FFA206DC16E90F898000A68D9
:201EDC0002F1080A01281CBF002013F083FA216DDFF8A825D1F8A0002968DFF8A435C86039
:201EFC009AF82660032E19D8DFE806F002050C0F00F5B06001E000F53470C8601088F887EF
:201F1C00118808E000F5355001E000F6B870C8601888F8871988A5F8741102E000F5B060BA
:201F3C00C8602868DFF85C65C168DFF85C8501F59071C16006229AF80000C0F38010387097
:201F5C000AF1020105F5947014F096FC04220AF10E0105F1240014F08FFC306895F806903F
:201F7C0000F10C0304220AF10E0103EB491014F083FC3068AB7900EB431303220AF112011B
:201F9C0003F1100014F078FC05F12C099AF8150089F8020002220AF1160105F1300014F0F4
:201FBC006BFC02220AF1180105F1320014F064FC02220AF11A0105F1340014F05DFCB9F868
:201FDC000800688402220AF11C0105F1360014F053FC99F80200B9F80A10400089F8020015
:201FFC000901B9F80400A9F80A104000A9F8040089B2B9F806004000A9F8060003046A8C90
:20201C00521CDB0B5A438A4201D280B230B998F8000080210AF054FD3B2131E105F12E01EA
:20203C00284615F0EBFB0520A881284615F0E2FB05220AF11E0105F1610014F01DFC9AF846
:20205C002300400989F8000015F0D0FB6882618D401AB88105F161019AF82300DFF82C74B8
:20207C0000F01F0089F80F004FF01C0A284615F0B9FB616D4A78206DD1064CBF816CC16EFE
:20209C0041F62102086800210171A97938681AFB01F142520021AB791AFB03F303445980FA
:2020BC00AA791AFB02F210444160616DDFF8E0034A78D1060DD5DFF8DC138A7851060AD5E2
:2020DC00DFF8D423138841F20A418B4208BFDFF8CC03C5F89C01D5F89C11284688473A6810
:2020FC00A97902F10E031AFB01F15854AA7938681AFB02F202440020D0733968A87901F1C2
:20211C000E021AFB00F0115C89F80D10606D4178CA061DD595F8960108B913F05BF9A979DD
:20213C0038681AFB01F1014495F89601421E0A74A87939681AFB00F00844002141743A680A
:20215C00A97902F112001AFB01F1002242522BE0A97938681AFB01F10144206D90F84020F1
:20217C000A74A87939681AFB00F00844216D91F841204274206D3968AB79403001F11202BC
:20219C001AFB03F34188D15205F5CB710078012200F0030082400A70226D92F8400080084B
:2021BC0014BF0120022008713968A879DFF8F0B201F1140231681AFB00F301EB4010D05034
:2021DC00A87939681AFB00F00844B6498161DBF814000078C107DBF8141009784CBF1F2006
:2021FC000F208A07DBF81410097848BF40F020004A07DBF81410097848BF40F040000A07E3
:20221C003168AA7901EB421348BF40F080001872A979306800EB41120B2050723168AA79C3
:20223C0001EB42100421A04A81721078012806D13168A87901EB40120121D17207E0DBF8A3
:20225C0024003168AA79407801EB4213D8723168A87901EB40121F2111763068AA7900EBDA
:20227C00421100204876A87915F0B8FAAA79316852018850AA7931685201885820B9072162
:20229C00284615F0A7FAEEE08848AA79016801EB021015F09BFAA8793168844B01EB401285
:2022BC00196801EB00105060A979306800EB41125168C9F83C10AA7952018158C9F84410B3
:2022DC00042198F800000AF0FBFB616D4A783868D10648BF02210AD4A9791AFB01F10144C0
:2022FC000A7C02F00302022A14BF04210621B9F8042095F806C04FF4C8738A18698AAA61B4
:20231C005143B1FBF3F35B1C6B611AFB0CFCD5F800E06044DEF80CC040F6C41101FB02C25D
:20233C00D21AA2F5A8628260AA7938681AFB02F283189A682B689A6000F10C03AA791AFBE4
:20235C0002F20C309B5C03F0EF038354A8793A681AFB00F002F10C030C321B5C03F07F038A
:20237C001354A8793A681AFB00F002F10C030C321B5C03F0F00343F002031354AB79386812
:20239C001AFB03F31844427B02F0F00242F001024273AA7938682B681AFB02F20244906892
:2023BC0018613068AB7999F802C000F11402686940005B0111FB0C0000F5F660D05095F8F5
:2023DC00960104280DD13068AA7900F114034FEA421C143053F80C20AB795B0102F56162F1
:2023FC00C2503068AA7900EB4210C37C03F0F00343F00403C374DBF830003268AB790068F8
:20241C0002EB431CB9F8062042436423B2FBF3F35943A1F59661CCF81C103068A97900EB20
:20243C004110C27E02F0F00242F00402C276A97938682A681AFB01FA00EB0A015160284622
:20245C000E2115F0BFF91A4907200870204611F0D7FEAA790021204615F0B0F928681549F0
:20247C00154A41618261BDE8F14F04F003BA00BFD50F0020780E0020D70F00208E0F00209A
:20249C00900F00209C0E0020C70F0020980E002081010210C00C00209A0F00204DE501104F
:2024BC001C990100980C0020CC0F0020A40E0020C80F0020353D0100020480802DE9F04FF4
:2024DC00C84AC44C074693461078A168BA78ADF1240D401C002A00F08781C14B521F0FF20A
:2024FC00E42900F0BB80521E4ED0521E1ED00A3A40F03A82B888BE7BADF8080078898DF8C0
:20251C00126060B9ADF80E00B889ADF81000F988ADF80A103E89ADF80C60012000E0002032
:20253C00AD498DF8130002AA0D461CE1AB49BA88102002AB06F036FB9BF80060A568F8784B
:20255C00B61C30B90DF10A0010F07CFB88A3009007E00DF10A0010F075FBB97800918AA31C
:20257C000190F1B22846002212F0CDFF04F1300013F048FB041C00F0FF8120890AF0D2F944
:20259C00204612F00FFAF7E11946102006F00AFBC6B29BF80010A068002284A3491CC9B200
:2025BC0012F0B1FF00969BF80010A06800224B46891CC9B212F0A7FFB888804613F040FE4A
:2025DC0008282CD0C50005EB00152D19E435A868071C0ED014F03AFD10B1384614F028FDD6
:2025FC00384615F0E7F8384612F0DCF9686812F0D9F904F130000768454657B181463889B5
:20261C00854203D14846394613F04BF93F68002FF5D1284611F08AFE28460EF081FD46B933
:20263C0004F14C0014F004FDCD480221012213F0EBF800250095CB4EA27810202B463146F2
:20265C0006F0B0FA0095E27810202B46314606F0A9FA9BF80000A168C01C87E119461020AF
:20267C0006F0A0FA5FFA80FACDF800A09BF80010A06800224B46891CC9B212F044FFB846B5
:20269C0098F80100002851D1B8F80A7004F1E409082000254FF6FF72A9F1180636F8181F17
:2026BC008A4204D0401E05F10105F7D126E03780032014F08DFC7060D0B10821017070680C
:2026DC00A0F80170242014F083FCB06018B9706812F068F90CE0E80000EB051048444168E9
:2026FC000091B249806841F27072012310F0EAFDE800012100EB0510484401759BF800503B
:20271C00A66808F1040010F09DFA6D1C009000229BA3E9B2304612F0F6FE9148012102225C
:20273C0013F072F804F14C0014F080FCBAF1080F12DA607880B9002600968A4DA2781020B3
:20275C003346294606F02EFA33460093E2781020294606F027FA0FE1954DE2781020294670
:20277C0006F020FAA2782946102006F01BFA03E14C696E6B20506172616D205570646174C8
:20279C0065643A20257300C04C696E6B20506172616D20557064617465204661696C65641B
:2027BC0020307825783A20257300C04644657669636520446973636F6E6E6563746564213C
:2027DC0000C046C04E756D20436F6E6E733A20256400C046B4110020D9570110F9DC0110D1
:2027FC00F53C0100D01D00207E78002E40F0C4803D7AFE798DF80A50FB7A8DF80960BA7943
:20281C008DF80F30BD7A8DF8082000268DF80E50684B8DF80C607D7A8DF80B6002AA8DF82F
:20283C000D50156852681D60C5B2084629465A6057A3324612F067FEA01CDFF88091614D52
:20285C005D4900904A46102005F1400306F0AAF9C0B208B113F045FF4FF0100805F11B00BA
:20287C00CDF8008056490190A2783346404606F099F9C0B208B113F034FF1C2005F15C0334
:20289C0000904F490193A2784046012306F08AF9C0B208B113F025FFDFF82CA1A27840468D
:2028BC009223514606F07EF900962E49A2784046334606F077F9C0B208B113F012FFE01C7C
:2028DC003D4900904A4605F17803404606F06AF9C0B208B113F005FF0B2010350090384933
:2028FC000195E2783346404606F05CF9C0B208B113F0F7FEE27840465146922306F052F9F2
:20291C00B146CDF800901749E2784046334606F049F9C0B208B113F0E4FE9BF80050A6685D
:20293C00B81D10F08FF9AD1D1FA100914A461BA30190E9B2304612F0E6FD0FF03DFC23488B
:20295C0040F6B83201231949009004F1700010F0B9FC1F4802214A4612F056FF0CE0C046A8
:20297C00FC2E0020ED740110421CD5B2C2B2084611462A4614F0B2F909B0BDE8F08FC0467F
:20299C00436F6E6E656374656420746F20257300496E697469616C697A656400257320415E
:2029BC006464723A20257300494400C0954B010065020210EF0F002099010110E558010021
:2029DC0055A70000FC1800201DEF0110BE1F0020FC2E00202DE9F84FDFF8B054A9780024CA
:2029FC00FF2904BF002012F0F5FCA87813F0F4FE054605F1680605F5C9773168086805F1C0
:202A1C00900808B1EC8311E0B07B002804BFB07E00280BD198F80010002904BF387800283D
:202A3C0004D1287F012804BF688CE8832989E88B4118491C6981284614F0B8FE01281EBFB8
:202A5C00DFF84C040178012903D12989EC83491C69814FF6FF79B07E01280DD1B28B69892B
:202A7C00288914F09FFE38B1298968894A1C93B298422FD0B08B23E098F8000001280FD101
:202A9C00B8F802206989288914F08CFE40B1298968894A1C93B298421CD0B8F802000FE071
:202ABC003878012816D17A886989288914F07AFE80B1298968894A1C93B298420AD07888E6
:202ADC0092B2904206D04844688180B214F066FE4844E883387801280FD128897988401C21
:202AFC0080B2884209DB7C793C71022038702346A9792246002009F07DFF05F59A71087960
:202B1C0020B128890021401CE983688105F12E08B07E01284BD12A89B08B521C92B2904234
:202B3C0045D1688105F18601284614F067FEB08C688400212977E983E88969894118A981EB
:202B5C00B08B298914F02AFE8146B8F80410308C728C01FB0909F08C8A4204BFB8F808101A
:202B7C00884202BFB38CB8F806108B4206D000090090B38CA9795208002004E00009009015
:202B9C005208A979302014F005FEB07F88F80000718CA8F80410B08CA8F806002846F18C19
:202BBC00A8F8081014F026FE0220B07601E0B8F80490EA8B501C00FB09F040F6C41909FBC0
:202BDC0000F100912B68D3F80CE07144D960B14B1B681978890903291BD1AF4BAF49DB7B1D
:202BFC00DB0702D500230B8013E00B885B1C0B809BB2012B03BF05F59A71C98801F2DC5119
:202C1C00698A41434FF4C873B1FBF3F1491C696107E0698A41434FF4C873B1FBF3F35B1CFF
:202C3C006B61A86185F820204FF01C0BDFF870A2AB79DAF8000000F108021BFB03F3D15871
:202C5C002A68116100F10801AB79D26868691BFB03F3121ACA50DAF80000AB7900F10802E8
:202C7C001BFB03F3D1582A68916000F10C02A9791BFB01F10C30535C03F0F00343F002034E
:202C9C004354DAF80010AB798A1C1BFB03F30021D152387908B912F09DFBDAF80000AA7984
:202CBC0000F1100138791BFB02F240088854A879DAF800101BFB00F008440021417438793B
:202CDC00042814D1A879DAF800101BFB00F001F110021031135C3A7A43EA82030B54AA7922
:202CFC00DAF800001BFB02F2024420205074DAF80010A87901F112021BFB00F000211152FF
:202D1C006849A8790A6802F114034FEA401C143253F80C00AB79D5F814C05B0100EB4C00BF
:202D3C00D050B07E02280DD10A68AE7902F11403760114329859AB7998F800605B0119FB4C
:202D5C000600D0505448C27BD0075CD5DAF80000AC7900F108031BFB04F408301A59AB7980
:202D7C001BFB03F3A2F5A862C250DAF80000AC7900F108031BFB04F41A592B689A600098DF
:202D9C00121A1A610868AC7900F11403640114301A59AB795B0102F5F662C25038790428F9
:202DBC000BD10868AC7900F11403640114301A59AB795B0102F56162C2500868AB7900F191
:202DDC0014025B01D058C5F834016427364A0B68106BAE79006803F11C04B8F80430434345
:202DFC00B3FBF7F7760109FB07F0A0F59660A0512E480378012B30D10868A97900EB41123F
:202E1C000120D07230E0042C0BD10868AC7900F11403640114301A59AB795B0102F5616224
:202E3C00C25038790A68AC7904280CBF4FF4AA504FF4E66002F1140364011A59101AB8F8A3
:202E5C00042009FB02F2A2F516729042BDD30821284614F0BFFC012016E0506A0968AA79FE
:202E7C00407801EB4213D872A879DAF800102A681BFB00FB01EB0B00506007210C480170B9
:202E9C0028460DF07DFE0020BDE8F28F780E0020D10F00203C0F0020980C0020E0330020E2
:202EBC00980E00209C0E00201C990100CC0F0020C80F00202DE9FC47D54C0F460546F80BA1
:202EDC0080F000826078DFF84C83B90F80F0A481B90880F09581F90A80F0FF80390B80F01C
:202EFC00CA80380907D2F80FC0F0228227F080470EF0E8FC1CE214F063F8814612F0B6FF5C
:202F1C00002800F0B280082013F048FF002840F0AC80802013F042FF002840F0A680684645
:202F3C000BF0A0FE012803D10098002800F09D8094F8F101002840F0988000250126E8B23E
:202F5C0013F090FC48B1837A3BB1867290F9090006FA00F0C0B211F0D9FB6D1C032DEED3A9
:202F7C000320207604F1D40014F024F8484614F00DFCD14800252A460168056050F8081C10
:202F9C00CE4940F8085C04F1540012F08FFE40460068006B8047A168401A010B206AC1F1BF
:202FBC00FF3282422CBF08444FF0FF30206294F8240020B12069216AB1EBC02F25D912F0B9
:202FDC0065FF294600B13146081C1BD0BC4840F6090101804580417B06F00F0221F00F015D
:202FFC000A434273017B05F00F0321F00F0143EA010202732946416013F098FD418811F4F4
:20301C00406FFBD084F82460256210F0F1F9CC4829460560022012F0D7FC022011F09AFF0E
:20303C0011200AF005F8207818B96068483013F0E5FFC448007810B90E2009F0F9FF94F8C4
:20305C00250020B184F82550052011F083FFBE48E0612576B4F9A800B4F9AA10884214BF8A
:20307C00022007200CF0AAFE02E0484614F08EFB27F008073CE720B1042011F06BFF002081
:20309C006070656811F026FB38B12846ED696FF4807100224FF00073A847E06858B14046BA
:2030BC000068006B8047E2686168801AC860000BC8600026E660A54904F15400002212F08B
:2030DC00F5FD0221D4F89400217618B104F5927013F0A6FF27F400670AE713F071FF06462A
:2030FC0012F0C4FED4F88C100028894600F0828000297FD09649042504F154000022257619
:20311C0012F0D4FD304614F041FB04F1D40013F051FF40460068006B8047E0604FF0010846
:20313C0084F80180284611F02DFFD9F810006060D9F81000416AC90803D3036A2946002209
:20315C00984740460EF036FE606880F81580606807F0E2FE6568D5F808A040F60A02D01FD5
:20317C00564600F1010C00E01E46736833B119888A4203D0884218BF8C45F5D1002171602C
:20319C00727B08F00F0322F00F0213437373D9F80C201288904224D06046904221D02B8E3E
:2031BC0003B3696305F13002518095F83C0001F00F0320F00F00034385F83C3095F83D0094
:2031DC0008F00F0320F00F00034385F83D307260707B01F00F0520F00F0045EA0001717385
:2031FC0000E0E160504613F0A1FC5146404612F0EBFB02E0304614F0C9FA27F4806797E0BF
:20321C0007F072FDD4F8940008B927F002078FE0C81F00208C0100104E4A116841F0800115
:20323C00116020B1042011F095FE0020607013F0C7FE8246D8F85400016804208847D0B1F7
:20325C00287DC0B1A068B0B18146D8F800002E69006B8047A0EB09002861000B2861B042D0
:20327C0002D280194008286140F6C41181422CBFB0F5967F2961504614F088FA11F02AFAB6
:20329C0080B1EE6928466FF4807100224FF00073B047D4F88C00002808BF47F0020701D0A5
:2032BC000EF010FB2846AD6900214FF080630A46A84727F000573BE014100440612601006A
:2032DC00E432002013F07CFED4F8A46066B306F1280106C90A234FF0E0450B40154008BF4F
:2032FC00002B21D106F1280191E8000306F1280595E8060006F1280322EA090221EA080105
:20331C0083E8060014F042FAB16879B1B9F1000F08BFB8F1000F09D03069B6F93010B568E7
:20333C004B464246A84701E014F030FA27F4804727B104F59270394613F072FEBDE8FC878B
:20335C0000000460969701000DBE000065B40000695E0100CC2108402DE9F04F4FF0000941
:20337C004E46ADF15C0D0796089609960A960B964FF0FF080C9641460D910E910F91109689
:20339C001191B24C12914F46139704F1300A1497E068159190E0E068710306AA042313F0C1
:2033BC0071FD149903AA304612F0A0FC02AA3046012112F09BFC3046022101AA12F096FC60
:2033DC00069800F0FF0028709DF81900069F6870C7F30140E8709DF80E30AB702978FF2977
:2033FC000BD0BDF80C00FE2907D04FF6FF71814204D130460DF0D0FF00E01020E8809DF87B
:20341C000A002871BDF808702F819DF806306B71BDF804206A810DE09DF8180028709DF8DE
:20343C001930FB75149A7A761599397630460DF0B3FFB8832978E068FF2936D0FE292ED020
:20345C007E2926D07C291ED0782917D0702910D0A52908D0242904D00C99491CC9B20C9136
:20347C0028E0129600E011961099491CC9B2109120E00B99491CC9B20B911BE00A99491CAC
:20349C00C9B20A9116E009990E96491CC9B2099110E008990D96491CC9B208910AE007990D
:2034BC00B046491CC9B2079104E009F101070F965FFA87F9761CF6B2E578B54200F34081DC
:2034DC00109F002F3DD10C9F002F38D10798022835DA0B98022832DA089802282FDA4D45EB
:2034FC002BD00B9FC7B9079FA7B90A9F0998074325D011F0A9FE854219DCB9F1000F14D0FB
:20351C0094F83200FE2111F07DFCE5780120DDF83C8017E0012015E0079860B9B9F1000FAB
:20353C0007D111F091FE854201DC06200AE0032008E00220EBE7022004E0149802E004209C
:20355C0000E005200028A07000F0E380401E66D0401E00F0C680401E23D0401E00F0B480C4
:20357C00401E03D0401E00F0AE8033E11198FF2804BF1298119084F8330094F833200C27CF
:20359C0084F831205019401E90FBF5F16943401A84F8320012FB07A0808BE08606F008F83B
:2035BC00B3E011F051FE05460C2084F83C5015FB00A0817E84F83D10C07E84F83E0008F025
:2035DC008FFCE2782D1895FBF2F050432D1AE8B284F83200401C90FBF2F15143401A84F8DD
:2035FC0031007C2010F0EAFFFF2810D17E2010F0E5FFFF280BD1159810F0E0FFFF2806D1E2
:20361C00782010F0DBFFFF2808BF94F8310084F833000C2110FB01A0808BE0868AE00E9F61
:20363C0008F1010090FBF5F184F832806943FF2FA0EB0100C1B284F8311013D10D98FF288F
:20365C0006D10C200D9111FB00A006E0901900200146880000EBC100504484F83310808B79
:20367C00E086B7E03A46D0B2910084F8330001EBC2015144898B1729E18640F2AB80C91FAB
:20369C0001AA89B20BF0D2F89DF80F00C0083CD314980090BDF81220E18E94F83300032371
:2036BC00891AC91F01AA89B206F044FD002840F09180BDF81010002900F08C809DF814003A
:2036DC000FF068FD86E0FEE7149EB54221DD304609F0EEFB6178E578761CF6B2014361709B
:2036FC00F3E708F1010084F8328090FBF5F16943401A84F831005FFA88F009F0D9FB60701A
:20371C00FE215FFA88F011F07DFB149801F032FF60E014986D1E0C2284F83100014684F841
:20373C00325011FB02A184F83300898BE1867E2111F068FB94F83200FE2111F063FB49E0AA
:20375C000C2116FB01A706AA0423710313F09AFB069907F11605080EB0F1960B08D1C1F3ED
:20377C008540C1F3014141EA800102293FF454AE149903AA304612F0B9FA02AA304601219D
:20379C0012F0B4FA3046022101AA12F0AFFADDF818C00CF0FF010CF0FF00FF2909D0FE29A2
:2037BC0007D07E2905D07C2903D0782918BF702909D1139F3FB9CCF38541032908BFBBF169
:2037DC00000F3FF400AE304609F072FB002860703FF4E1AD17B0BDE8F08F70472DE9F04F51
:2037FC000F46780689B027D5DFF8F8231078002114F010F804001FD0DFF8EC03016888470D
:20381C00054613F083F96168884204BF40F2014013F0B8FF00202072201D09F0F9FEDFF889
:20383C00CC130A6828469047204610F0E9FCFF223C21204613F0C2FFB80604D508F0A1FFB4
:20385C0087F02000CAE1F8070CD513F05FF930B100218160DFF89803006800B1804787F023
:20387C000100BBE1380704D50AF05BFD87F00800B4E1F8060FD5002100220023069105929B
:20389C0004910393029101920091022013F076FF87F01000A2E1B8070FD500210023069108
:2038BC0005910491039302910191009101223C2013F064FF87F0020090E179074FF01E08C1
:2038DC00CC4EDFF834A340F1CF80CC480022002108920791007813F09DFF0446C848817891
:2038FC00FF2904BF002011F075FDA07A12F074FF05469AF8000095F82E91002805F5947B45
:20391C0069D0606D807A022818BF032807D130680D3013F02FFF10B93068C11D079159460B
:20393C00484613F023FFA0B3606D807C3368002818BF012804D11946584613F013FF04E00E
:20395C005A464946184613F0B9FFFF2843D018FB00F83068404406225946C01D12F08CFF71
:20397C00306810F80810404400F1010BC01D41F0020908900622616DC87A00F0010085F89B
:20399C002E01606D00F10C0105F5947012F074FF21E05946484613F0E1FEE0B130685A46C5
:2039BC00494613F08BFFFF2815D018FB00F8306840440D3013F0DEFE58B9306840440D3016
:2039DC0013F0D8FE002801BF30684044417F012901D149F0020905F12C004B46017806912B
:2039FC004289120905920122698C0491C0880899029140080390CDF800B007980190002065
:203A1C00A97913F0BBFED5F89C017E498842A8790CBF0021012113F09DFE7B49AB790A688A
:203A3C0030204343134401225A70AB790C68434323449A70AB790C6843432344DA700C687E
:203A5C00AA79231D424301249C54AA79096810FB02F00844002141710122A979072007F03A
:203A7C005AFA87F00400B9E038060FD500210023069105910491039302910191009101222B
:203A9C003B2013F07BFE87F08000A7E0F8045DD55E4930680C680D3013F06CFE002844D1ED
:203ABC003068C11D0D3013F051FE3EE0606D4178480704F13E0526D5287802281EBF0328ED
:203ADC006878012830D16978306804F1380213F0F5FE8146B9F1FF0F15D0306818FB09F911
:203AFC0048440D3013F046FE68B930684844C11D0D3013F02BFE30684844C11D062204F1EF
:203B1C00380012F0B9FE2878022818BF03280BD130680D3013F02EFE30B93068C11D062265
:203B3C0004F1300012F0A8FE2468002CBED13848DAF8042000784FF480510FF0C7FF10B1CD
:203B5C008E2013F0FFFD87F4805047E0B80505D513F0D6F82F4901200860FEE7780504D586
:203B7C000CF033FB87F4806038E0780405D5812013F0E8FD87F4804030E0B9042DD5264C31
:203B9C00206810B1002011F025FC4FF0FF3020600020224C0CF040FD216851F8202F6846FA
:203BBC0090471F494A6B086BC96A24681D4B019200900293ADF810106B461B4A1B491C4800
:203BDC0003921C4A079225681B4AA8471B49086004F022FA87F4005000E0002009B0BDE84F
:203BFC00F08F00BFD50F00206418002068180020480F0020680F0020880E0020D70F002061
:203C1C00780E00204DE501106C3300204C0F0020C70F00207C052043380F0020200F0020D5
:203C3C00F0190020096B0100196B01004C1E0020280800201EFB0080EC0A00201C0F002071
:203C5C002DE9F84F0546DFF80804DFF808640278002A84B048D0052A56D0062A58D0072AAC
:203C7C0018BF082A00F0D1800A2A00F0C381112A40F0E481DFF8E0331878002113F0CAFD41
:203C9C0004001EBF606D407810F00C0F2CD0216DC0064CBF886CC86E0622016801F1080572
:203CBC00A91C684612F0E8FD287800F00F0105291AD16946C0F3801013F058FD002813D080
:203CDC003168684613F04EFD0546316804F1380013F048FD85420DD0606D4178C80604D40A
:203CFC0040F2014013F04EFDAEE1607B40F002006073A9E133681E20454358190622694645
:203D1C00C01D12F0B9FD9FE1012013F017FD9BE1DFF84853286813F00DFD0400F7D020794B
:203D3C000328F4D1207A00F00F01072938D1DFF8300300684169497A4A1E11425ED0617A01
:203D5C0004F10A035A5C02F03F02252A56DBA17A8A09012A52D111F03F0F4FD0007C12F0F4
:203D7C003BFDE17ACA074CBF04F1110204F10B028B0748BF921D0B0748BF921CC90648BFC9
:203D9C00D21C1621127852094A43B6498B180A31EB608A5A428699898186DA89C2862DE0BB
:203DBC0000F00F00082829D1A17A880926D129B3AB480168087C12F00FFDE17A074688071A
:203DDC001CD5062201F001015143601800F10C01684612F051FD207AC009FF280ED069469C
:203DFC0013F0C4FC50B1306800F10D01684613F09DFC18B90521384613F0ECFC20790328DE
:203E1C0002D0002011F0E6FA14E1DFF85C9299F802000024FF2821D012F0DEFC804608F18F
:203E3C006C07786813F086FC029029460279032A01D0080012D00298826813788DF8003066
:203E5C0003F0030001909DF80000830604D50124019820B97868EEE00800F9D0F4E0557811
:203E7C0002F1020A2CB31AF8010B804A13680390302098F806E003F10A0C10FB0EFE012347
:203E9C000CF80E30002998F806E0136810FB0EFE9E44039B03F01F038EF81C3098F8063066
:203EBC00126810FB03F01044039AC2F3811242771BD10198032808F2171B1BD0B5B138789F
:203EDC0068B108F1F400017801290FD1604A1178072904D0082904BFC078012806D13D217C
:203EFC0001208BF801108BF80000ADE060490A78012AFAD098F8940090B32D1FEDB29DF8DA
:203F1C00001053462A4640460CF0A0F800281EBF58490878002809D101203D218BF8000028
:203F3C008BF80110306813F0FDFB8DE0524801688847064698F80610D9F804204FF4D07095
:203F5C0041435018002280F8412108F59E700168807949080CF09CFB48490A6830469047BC
:203F7C000298002181600198032819D04448416909788A0709D541690878C1074CBFE81CB5
:203F9C0028461AF80000387201E0812139722A460198C3B299F80200514605F05DFC21E0B6
:203FBC009AF800001CB11B2804BF022D01251C2803D234490B5C9D4206D08BF802000721CC
:203FDC00404613F0FFFB0AE02148017808295146404602D112F0F0FF01E000F07FFA504684
:203FFC000EF0DCFD786813F099FB0299404613F091FB29E0244C207830B3244D286813F0AF
:20401C0099FB08B3017903291ED1017A8A0611D5807AE178C0F38112914202BF217900F0F8
:20403C001F00814206D1A078002801BF607800280121A170286813F071FB05E0002011F073
:20405C00C9F9862013F0DEFB05B0BDE8F08F00BFC80F0020680F0020D50F0020BC0A0020F0
:20407C00540F0020E0070020780E00206C330020D20F0020F13300206418002068180020B4
:20409C001C990100A89901001C330020AC0C00202DE9F84F0446002000900CB911F09AF915
:2040BC0004F1500941F62300D9F8006030800021022071808222707332736946204609F0ED
:2040DC00CDFC08B9072000E2B06020610021207EB073F173D9F80400017D022904BF0020F9
:2040FC0011F078F9D9F80400007D012802D10020307405E083280CBF062002203074202099
:20411C00707404F1240BD9F80400DFF8C4834178480615D5D8F83C00416908689BF80510C9
:20413C00401C01EB4101405A7082607DC10604D5E07F40F04000E07702E040F04000607583
:20415C0006F158050020287104F130009BF81A10890001F004012971B0664FF01E0A607DE1
:20417C00C10645D506F130003062D9F8040041788A060BD5617D01F0FE016175407810F02F
:20419C00030F03D1E07F00F0FE00E077607D13F0BDFAA075421C307CC0F38001002392B228
:2041BC0000F0030013F0AEFAA0831E23A08BE27D00F5967100F59B7012FB01F290FBF3F3EA
:2041DC000A320AFB13006283C0B208B1C0F11E008018A183608380B2B168A63001EB800163
:2041FC0031660220E871E17F41F00801E17713E000273762607D40F001006075D9F8041024
:20421C004A78510744BF40F002006075607D13F07DFAA0753766EF71A17D207D61F30500E1
:20423C0006F18801207508700322607D48708A7006F128079BF81A00800000F0040040F0AA
:20425C00030088709BF81B20D20002F00802104388700020C870C6F89000BBF81C00C0F338
:20427C000B00ABF81C00D9F80410CA7D40EA0230ABF81C000022617D01F0FE01204613F0B8
:20429C003DFA40F61200B0830021F183D8F83400008880007062D8F83400008800281ABF50
:2042BC00072139703870617DC8064CBF00200220787041F62401E07D788039810020788104
:2042DC00618BB06800EB8100B0630221822038757975002194F8210000F03F00B875F97547
:2042FC00D9F80400807D012818BF022805D100F07F00401E3876797606E083280CBF0620E4
:20431C000220387620207876D8F83C00416908689BF80510401C01EB4101405A7883002175
:20433C00F166D9F80400417811F0030F1FD013F0E1F9F066D8F818000078C107D8F8181027
:20435C0009784CBF1F200F208A07D8F81810097848BF40F020004A07D8F81810097848BF15
:20437C0040F040000A0748BF40F08000287600206876D9F80410574A897C01F003016976EE
:20439C009BF81A00800000F00400014369769BF81B00C00000F0080040F0100001436976F4
:2043BC00107830B141F040016976287E00F0FE002876E07F13F0AAF984F82000204613F0EB
:2043DC0095F9E07FC1063BD5D9F8040094F820204178521C88074EBFD21E9BF81F001218CD
:2043FC00387EC0F380010023D2B200F0030013F089F9ABF80000BBF8000000F59671C1F194
:20441C001E0291FBFAF10AFB012A8BF804A0D9F8042051788A074CBF00214FF49B710818A8
:20443C00ABF80000ABF80200BBF800109BF80420B06B5218A63200EB82007067022001E0FA
:20445C0000207067E87604F13000C6F8800006F18400D9F804104A78510706D504F1380204
:20447C000260687E40F0200006E01B490A6851680160687E00F0DF006876A17F94F8200053
:20449C0060F30501A17740F60B00B8840021F984D8F83800008880007065D8F838000088FF
:2044BC0000281ABF0721297028700221697094F845006880D9F804104878810744BF012080
:2044DC006880009807F0F4FD0020BDE8F28F00BF1C990100880E00206C0F00202DE9F04303
:2044FC00044685B0084611F801CBDFF8A483DFF8A4333022BCF1030F4FF0000904F5A477E5
:20451C0004F1660504F1F40600F0C380BCF1070F00F08081BCF10F0F0CD0BCF1110F00F0E5
:20453C002481BCF11A0F00F03681BCF11B0F00F061818EE1707A820703D40F2184F8191105
:20455C0059E008784A7800EB02233B808878CA7800EB02237B8008794A7900EB0223BB801D
:20457C008879CA7900EB0223FB80087A38724A7A887A02EB00237B81C87A0A7B00EB02237B
:20459C00BB81487B8A7B00EB0223FB81C87B0A7C00EB02233B82487C8A7C00EB02237B8202
:2045BC00C87C0A7D00EB0223BB82487D897D00EB0122B948FA8201788A0658BF4FF01A09EF
:2045DC0013D504F5AA70049079890391387A029021890191F8880090BB887A88398820469E
:2045FC0013F080F8C8B14FF01E09707A410706D40F2084F81901204613F070F8F0E04A4643
:20461C000F21204613F066F8F8880090BB887A88A17948460EF06EFAE9E004F186007988DF
:20463C008180BA88C2800222F98801810270A0F80290A18EC91DE983628E8188B1EB520F9F
:20465C0002BFC188A28E914202BF0089E18EB0EB111F1CD0287C012804BF687C0F2809D03D
:20467C00687D00281CBF687C1A2803D00F21A976FE2176E0FC21204613F0A4F8F888009047
:20469C00BB887A883988A07913F020F8AFE0102167E0707AC20709D431781A200129707040
:2046BC0002D1FF220D213BE00D215AE085F8009085F8069001233371082204F1B00013F07F
:2046DC0001F80146022204F1B80012F0FBFF04F1A80801460822404612F0F4FF07460821AA
:2046FC00404612F0EBFF04F19C0804223946404612F0E8FF0421404612F0E0FF04F1A0005E
:20471C0012F0D8FF04F1980012F0D0FF6348018841F0800101803078012805D1FF220421F2
:20473C00204612F0BFFF62E06E7C0F2E18BF142E04D00E2E1CBF0C2E1A2E11D12F7C204655
:20475C0012F0ACFF0421204613F03CF8012F05D11A2EAE7614BFFD21FB2102E0314600E016
:20477C000421204613F02EF841E00E783E761A2E497879766DD11868A679811D564301F809
:20479C0006901968A37912FB03F20A4482F80990A179787E56E0A77918680E785743074416
:2047BC0006F01F0117F8250FB60938B17878F040C00703D594F89601042805D120221A217B
:2047DC00204612F087FF12E0F970A179186812FB01F28118204681F82760002107F018FAB1
:2047FC0028B998F800004FF4804108F069F94FF0010932E0A179186851430144888908B92E
:20481C0081F80690A179186812FB01F2811881F80990ECE709780F2917D01A2919D1A1796E
:20483C001868514301441A2081F80690A1791B6812FB01F2991881F80990F17A01F0FB0102
:20485C00F172A1790BF0DEF8D1E7717A01F0FD0171720146204612F01DFF687C1A2812D1A5
:20487C00A87C17281CBF1028FC280CD12E7C204612F014FF012E03BF1A20A876FB211A21E0
:20489C00204612F09FFF484605B0BDE8F08300BFC70F00206C330020200E00209C0F00200E
:2048BC002DE9FE4F0422FF2101A811F0EFFFDFF8541388780024FF2800F0A28111F08CFF73
:2048DC00054605F217100178012908BF417800F0EB8005F1740005F59276817B022904BF7F
:2048FC0005F174018C7395F89201022805F1740008BF85F89241017F022904BF05F174018E
:20491C000C77F18911B1307B08F0DAF86889BE4F2881FB7997F80AC03A7BF97A787B9C44D8
:20493C0094448C4405F58D790CEB0008B9F804E0B9F800C00EF1010EC444A9F804E0A9F872
:20495C0000C0B9F802E097F80AC0F444A9F802C0D6F800C0BCF1000F29D0DFF8B0E2DEF872
:20497C0000E00EF10E0ACDF800A04FF01C0A95F806B01AFB0BFADDF800B01BF80AA03CF887
:20499C001AB0C3442CF81AB00EF10E0A95F806B04FF01C0E1EFB0BFB1AF80BA00CEB4A0C50
:2049BC0097F80AA0BCF84AE0F244ACF84AA0002B08BF0029DFF858A203D1002A08BF002827
:2049DC002BD02989E8892C744118287FA981012804BF688CE883A9790122072006F09BFA91
:2049FC00A346787878B1012105F1740229779078002802BF05F17401887B002803D1087F89
:204A1C0008B9688CE883307D002855D0022804BFF87A00284CD134754EE0A979072006F0A6
:204A3C007AFAEC83B87A40B1297F2C7401294FF0010B27D1688CE88324E0B9F80600401C29
:204A5C00A9F806004FF0020B287CD8B1DAF80010AB7995F82EC001F114026969490040F640
:204A7C00C4105B0110FB0C1101F5F661D150A879DAF8001001EB4010C17C01F0F00141F0C5
:204A9C000401C174A8892989814206D08842A8D2081A41F2AB029042A3DA287C08B1052924
:204ABC0001D0082100E03E21284612F093FEA7E0787A08B102213175F87BC1070DD52968F7
:204ADC003869C86000F59070C860AA79DAF8000000F1140152018C5013E0DAF80010AB79B1
:204AFC0001F114025B01D05830614848AB7901681C2001F1080243432968D058C860EC8352
:204B1C002C77444A50690078810702D5B87B802800D1812005F174063070284612F064FA8D
:204B3C00284608F0D1FD02281BD1F079022805DB01AA394928460DF0DDF80446284612F075
:204B5C00A5FD01285CD020000DD0224601A928460DF09CFC38B9284608F0B6FD012802D12A
:204B7C004EE001284CD00121284612F08BFD284612F084FDFDF72EFF012841D028460CF0D6
:204B9C002DFA01F077FE254FB988386810B1AA79914203D04FF6FD70814231D12049087B2A
:204BBC0011F0ECFF04002BD084F800B0A8791D4960800A68A879115C217105F5C97210790B
:204BDC00607196F90010A171A4F80880B9F80200608111F09BFF050005D1FF204FF0FF317B
:204BFC002073216109E02878207312F043FD0146A86812F03BFD80082061204639688847B6
:204C1C00BDE8F78F780E0020980C0020980E00209C0E00201C990100341B0020800E002080
:204C3C005C1E002080330020D1480278112A00D070472DE9F84FCF4A1078002112F0EAFD8E
:204C5C0004000AD1002010F0C5FB002010F0C2FBBDE8F24FFF2012F0D5BD04F14C0999F828
:204C7C00000008B90121E172401CD9F8083089F800005978CA062CD4E27DD9F80460C7B24E
:204C9C00974227D25A7AB17B277E0120A1F1250300FA03F3A7F125018840184322EA0000C9
:204CBC0000F007000EF024FE2530B073A18BB06800EB8100B060607DC1060AD5628B99F888
:204CDC000010A08B00FB1121B068A63100EB810030664BE104F1280706F1900806F1730511
:204CFC004FF0000A50D1A17F6975E07FA875D9F808205278930710D5E27FD30604D5C91E78
:204D1C00697500F0EF00A875C6F874A085F800A00022A97D01F0FE0123E1910608D4F88B7C
:204D3C0000B1F87E2876F88B00B1386AC8F80000D9F808004178CA070DD5F88B00281CBF31
:204D5C00386A002807D0C8F80000B97EF88B814238BF08462876E07FC1060CD5B06B3978A3
:204D7C0000EB8100B063A18CA63100EB810070670220287003E0C6F874A085F800A00022A3
:204D9C00E17F01F0FC01ECE0CB071ED5687D811E697501F03F01A87D00F0F700A8758207D3
:204DBC00697504D4891D697540F00200A875A87D410605D56A7D511E697500F0BF00A87508
:204DDC00C8F800A085F818A0D0E0801AC0B20090880740F183800098012806F1400B3FD100
:204DFC00B06BA18C00EB8100B063A07F00F03F00A0776875E17FA975D9F8082053785A07EB
:204E1C0004D5801F687501F0FD01A9750023687DF97E00F03F0042189BF80000521CC0F358
:204E3C00800192B200F0030012F06CFC00F59B70A0841E21A08C90FBF1F18AB2A97D01F0E5
:204E5C00FE01204612F05AFC85F800A0F88B00B1F87E2876F88B00B1386AC8F8000085E019
:204E7C000228B06BA18C00EB8100B06326D1E07FC10706D5687D811F6975A87D00F0FE00B6
:204E9C00A8750023687DF97E00F03F0042189BF80000521CC0F3800192B200F0030012F063
:204EBC0031FC00F59B70A0840022A97D01F0FE01204612F023FC787FABF81A00797F009882
:204EDC00491C081AC0B201281CDDA28CB16BA63201EB820171670221297014E0B06BA18C3A
:204EFC0000EB8100B063797F0098081AE17FCA06C0B207D5A28CB16BA63201EB820171677E
:204F1C000221297090B3D8F8003097F81BC0E27FA17F6344C8F8003022F00108D9F80820E0
:204F3C005278530748BF28F00208920748BF28F00808012807D1387F2876C6F874A028F000
:204F5C00100885F800A001F0C006404612F0DEFB00F03F003043687585F81680002208F03C
:204F7C00FC012046BDE8F84F12F0C8BBBDE8F18FC80F0020D50F00202DE9F8439D4C9E4900
:204F9C009E4E20700A22002008600D239C4840F2132102704380818084B09A4A9A481060AB
:204FBC0037789A480770FF2F7178417008BFFF29B2788270F378C370357905717679467192
:204FDC0014D1FF2A08BFFF2B10D1FF2D08BFFF2E0CD18F490A7802704B7843708A788270A2
:204FFC00CB78C3700A7902714979417189490278894D8A4E8A4F0A7043784B7082788A70FE
:20501C00C378CB7002790A714079864A4871FF2028706870A870E87028716871002082496A
:20503C000880F06B8149407808708149F06B0078087013887F4880490380F06BC06C0860C5
:20505C007E49F06B90F83C0008707D49F06B90F83D000870F06B406901797A484A1E02705E
:20507C00F06B7949C0783870F06B8069086008B910F0B0F9F06B7549C069086008B910F096
:20509C00A9F9F06B416D72480C2211F0F5FB12F0E9FAF06B6F49006A086008B910F09AF952
:2050BC00F06BDFF8B481406AC8F8000008B910F091F9F06B6949806A086008B910F08AF915
:2050DC00F06B6749C06D00283CD001220A75F06BC06D02681378C3F3400028B1C3F3C000E4
:2050FC0000280CBF01200220487500208860C8600861F06BC06D426890780870F06BC06DCE
:20511C004268D0784870F06BC06D426813788B70F06BC06D42685078C870F06BC06D4268AD
:20513C0010790871F06BC06D426850794871F06BC06D426890798871F06BC06D4268D079EE
:20515C00C87101E000220A7500F008FF07280AD105F0AAFC20784FF4804107F0B1FC00207C
:20517C0010F038F943E03F480168884781460BF0E7FDD8F8000001688847684611F00EFD98
:20519C00D8F8002004208DF80000694652F8043F00209847344908600DF09AFEF068334AD0
:2051BC0001883878324B014311804846196888470C21304811F01CFF284612F04FFA12F0EE
:2051DC0049FA2D4800214FF6FF7201608280F06B90F858102948006811F068FC0121FF20F7
:2051FC0011F000FF20784FF4005107F069FC05B0BDE8F083C70F0020380F0020D04F005072
:20521C00700E00203C0F0020B63F0050400E0020E8120050500E0020480E00201C990100C2
:20523C00C40F00203A1E00209E0F0020C60F0020D40F0020DE33002074330020EF330020E8
:20525C00F0330020CB0F0020200F0020240F002028330020280F00202C0F0020300F0020C7
:20527C00843200206418002078330020A00F002068180020FC0D0020800E002088330020B4
:20529C002DE9F84F05004AD0AA480078092818BF0A2804D00B281CBF0C280D2801D1212074
:2052BC0046E1A878002112F0B5FA040008BF4220F6D0A14EA9789F4A3170107810B9A878BB
:2052DC009E49087004F14807F868417801F01201022902BF786900280C2012D0607AF0B174
:2052FC00A07B012804D1B5F8030008B1812816DA6878402813DA204612F0A8F9B86808B958
:20531C00072015E1BD61287801281BD1A07B00281CBF0128042815D18948007808B91220EC
:20533C0006E188494A78824208BF0920F8D004F1220004F13801427F802005F025FB08B1E7
:20535C000B20F5E0687808B91120F1E02878DFF8F881DFF8F8B1DFF8F8A1012840F0938042
:20537C00207A0021012821734FF00A0911D19AF8000040210FF002FAB5F8030009FB00F1D2
:20539C00402012F05FF90100DFD1B96968794871CDE001202072E172617308F0DDF86060B6
:2053BC00DBF8000080476B4A0146106802E06268426000680028FAD10846D8F8001088471D
:2053DC006168654848610021307811F00BFE31780122112005F09FFDF8684178C80605D570
:2053FC00204601F05FFB01000BD0A1E00020608409F0FCFF84F821002046FEF749FE01004B
:20541C00F3D1F8684178C8071CD504F14206B18800291CBF3868002814D032788A4211D254
:20543C000F2012F00BF968B1F86801788DF80010B088ADF801000F2031788DF80310694697
:20545C0012F0F8F83B4E3078002870D14349087800281EBFF868417811F0030F03D040480C
:20547C00006812F0E3F81120307001212172B5F8030009FB00F1402012F0E4F8010057D139
:20549C0001F0F8F953E0207A002851D0DBF80000804705463078012111F0A4FD9AF8000015
:2054BC0040210FF06BF900202E4920720A68367811460B68187A002802BF586D0378B34249
:2054DC001ED089689142F4D111F050FC012824D111F01CFB616888421FD10FF00BFD40F2FA
:2054FC00014012F04FF920492048086001219AF8000007F0E5FAD8F800102846884716E02F
:20551C001B4E30780128DFDD08460FF0DBFC11F02DFB3078411E3170D6E7204612F082F8E5
:20553C00D8F800102846884720460EF069FE0020BDE8F28FC80F0020D60F0020D50F002021
:20555C00D40F0020780E00206818002064180020C70F00204C0F0020ED740000880E0020C2
:20557C006C0F00207C330020480F002015640000EE3300202DE9F04FAD4E4FF0000A814614
:20559C00ADF1140D57467069CDF808A0CDF80CA010B1804700B90B27F078002F40F097808B
:2055BC0096F8314096F832700146B9F1000FA1F101011FFA81F818BF012155464FF0F80BA4
:2055DC0086F83F1022E0AF421ED0F06869036A46042311F057FC009911F4403F1CBF0AF11F
:2055FC0001005FFA80FA01F0FF017C2918BF782909D1284606215A4610F088FD0C2015FBDD
:20561C00006080F848B0F0786D1CEDB2A842DADC401E50455BD0B8F1000F06F1300500F07C
:20563C00CF8003984FF4005B019096F83F30F06813B9012186F83F106A466103042311F0E9
:20565C0021FCB9F1000F05D00099F07811F4403F40F09B80009800F0FF00702803D020465B
:20567C0070210FF0CFFBF06879036A46042311F009FC009800F0FF00FE2803D03846FE21E6
:20569C000FF0C0FB38460621FE2210F03FFDB800FE2300EBC700FF2186F83C70A200A6F81E
:2056BC0040B0401986F83D4000F1180A8AF80030019B86F83E1002EBC4004019A6F8443041
:2056DC00808BA6F8420000F0B5F8102801D10020AAE0B9F1000F0CBF10214946B9F1000F75
:2056FC0007D0B6F84000C0F50050814207DC01200390B6F84000C0F50050814201DD78213D
:20571C0000E07C2138460FF07DFB06F0E9FB96F83F300446A8EB04000621FC221FFA80F86D
:20573C00181B86F83F00384610F0F0FCFC208AF80000029A96F83210F078091996F83E4053
:20575C000C27891891FBF0F24243891AC9B286F83210491C91FBF0F24243891A86F83110CE
:20577C0014FB0751898B102905D1611C91FBF0F24243891ACCB20198B9F1000F96F8327070
:20579C00029019D00398B8B11AE096F83F30641C94FBF0F1A8F101024143A6F840B01FFAC0
:2057BC0082F8581E641A029986F83F00E4B286F83D40481C80B20290B8F1000F7FF435AF3F
:2057DC007C200EF0FBFE0446FF2C1CD17E200EF0F5FE0446FF2C16D196F831400C2014FB93
:2057FC000050807DFF280AD0F27896F832008018401E90FBF2F15143401AC4B203E0204604
:20581C007E210FF0FFFA0C2086F8334014FB0050808BF08696F83200FE210FF0F3FAB6F85F
:20583C004000C0F5005000B205B0BDE8F08FC046901900202DE9F04F9B4D95F83D0095F819
:20585C003F10EB7895F83C800027ADF12C0D0918491E91FBF3F295F83D406F705A43891A11
:20587C00C9B20891810001EBC0014919B1F84C0095F83C10ADF81C00880000EBC10040194C
:20589C00B0F84C60CDF8248006A80EF023FC68780A97A04500F0A180B946CB46BBF1010F21
:2058BC0000F09080BDF81C10172966DB002840F09580BDF81C0001AAC01F81B2ADF81C109E
:2058DC00204608F0B3FFBDF81210BDF81C30884608F1070008F1100287B29A4246D89DF823
:2058FC000E00962842D19DF80F00420839D2800837D3BDF81C0000230093A0EB08001FFAEF
:20591C0080FA9DF80D20BDF81C002346401A80B20FF090FAF8B9F019B0F5005F15DCE868E1
:20593C00C6F188520AEB443A3B46D21B514602F5005211F0A7FAF61909F10109B6B2B6F531
:20595C00005F08BF4FF0010B0BE0BDF81C004FF0010BC01D2EE0BDF81C00401EADF81C00D8
:20597C0004E0BDF81C00A0EB080023E0204607A90BF012FF01281FD030E0EA78B9F1000F5B
:20599C0007D0484BBDF81C70A10001EBC401C9188F830899A14220D04249641C94FBF2F00B
:2059BC005043241AE4B2A00000EBC4004018808B4FF00009ADF81C0009996878A1427FF4D1
:2059DC006DAF0AE0B9F1000F07D0364ABDF81C70A10001EBC40189188F8320B1069810F0E0
:2059FC00F3FC10205AE0DDF824804FF6F0704FF40051C6EA0040C6EA0141E1FA40F01FFA7A
:205A1C00A0F283B2102102F1885240460DF014FD697808436870069810F0D6FCA0450FD1D8
:205A3C00EA78204F1019401E90FBF2F15143401AC4B2A00000EBC400C019808BADF81C002C
:205A5C00184B1020BDF81C70A5F840004FEA8801A5F8447001EBC80185F83E40C9188E83C4
:205A7C00B5F9422095F83D10404601230FF0DCFD95F83E10B5F94420022340460FF0D4FD36
:205A9C00BDF81C001728BCBF01200A90B6F5005F03DB0A9840F002000A900A980BB0BDE84C
:205ABC00F08FC046C0190020901900202DE9F0470D4629048F4EDFF8408240F1F1808F4FC0
:205ADC0038780BF075F9040018D021780120B02917D0B12908D0C22900F0B580D02904BFAD
:205AFC002046FBF7E1FDD1E0207920B92289E1886088FBF744F9204610F0A4FA85F4004049
:205B1C00F5E02179387A012910D009294DD01E2900F08D807D2908BF002806D16088FBF765
:205B3C004FFD01466088FBF70BFD86E00028FCD1207AB4F80290082835D14846FBF740FDAE
:205B5C0002280FD003282ED1002204214846FBF70EFC0246B86900281CBF4368002B22D0F1
:205B7C0004211EE0002210214846FBF700FC8246484611F09FFE60B198F8001039B9811DE2
:205B9C004079012200F0010011F048FD01E001203070B86900281CBF4368002B03D05246CF
:205BBC00052148469847608805E0002845D1617860881A2902D1FBF7A2FC3EE0FBF700FDB7
:205BDC00022819D0032838D120896688012804BF6089032806D1E068827804213046FBF725
:205BFC00C6FB00E01820B96900291CBF4B68002B23D00246042117E0218966880120012972
:205C1C0004BF6189032907D1E268917821B9012210213046FBF7ABFBB96900291CBF4B684F
:205C3C00002B0AD0024605213046984705E0787A18B9608800210AF083FB217904F10800C0
:205C5C0011F050FE57E7A07810BB012139742022E11C07F1880010F00FFE202204F12301C2
:205C7C0007F1A80010F008FE202204F1430107F1C80010F001FEB86900281CBF4368002B2E
:205C9C0006D0627806210020984701E00028D9D11B480078FF2802D0214603F0C9FB2DE759
:205CBC00690716D5174A106880B1FBF793FC04000CD0E07A50B90121E1726268A17A20899C
:205CDC00FBF79EFA606808B110F050FF85F004000DE028070AD53178012902BF98F80000B6
:205CFC00002808F023FA85F0080000E00020BDE8F08700BFF4330020AA0F0020BC160020E1
:205D1C00BA1F0020903300202DE9F04F0746F88916468A46ADF1440DC01D80B2054609F0FA
:205D3C00CFF88D4CFF280BD12846FFF723FC854204DD641C207800B9052009E1012000E098
:205D5C0000206178D9B916B1022E18D1B8B1387AFE88BD888DF82C000023009309AAADF817
:205D7C002A60E18E94F83300ADF82850032304F0E1F99DF834003874BDF83060BE81BD89FF
:205D9C0055B3FE8946B3AD1B4FF000091FFA85F84D463A7C761B202ED4BFB6B22026E06808
:205DBC0008EB050189B2334601EB423101AA11F069F80AEB050101A832460FF095FE58B9EF
:205DDC00AD19FE89ADB2AE42E3DCB9F1010F1CBF4846B88140F0B58094F83310E58EE06801
:205DFC0001AA04238846490311F04CF8019800F0FF007E2806D140467C210FF003F801989B
:205E1C0000F0FF007C2840F0A080FE8942F20101F01D1FFA80F905EB0900814240F3938025
:205E3C00F9883A7ABB8808128DF8391062F39F0099108DF8380006F03F078DF83A10C6F3C8
:205E5C00851203F00300731942EA80111FFA83FBF21D8DF83B10B8008DF83C0090B20D28EA
:205E7C002BDB50463146002210F056FF024605210EA810F051FF9DF83C103346962600F002
:205E9C003F0752468DF83E6041EAA0118DF83C10B80040F0020029468DF83D0040460DF09A
:205EBC00CBFA064659460EAA0723404666700DF0C3FA304360704AD132E004F124005146FE
:205EDC00324608F09DFD37192437761D0EA801680079396000223871B1B204F1240010F0E6
:205EFC001BFF9DF83C10962300F03F068DF83E3041EAA01104F12402B0008DF83C104B46A1
:205F1C0040F002000EAE8DF83D003168B0793960B188B8714046B98029460DF08DFA607076
:205F3C00E18E4D444FEA8807AAB24944E18607EBC8010919A1F84C2048B1404659460DF030
:205F5C0029F9607803E0052000E001206070C0B211B0BDE8F08FC0469019002038B57A4D78
:205F7C00687910F0FBFD7949002808606ED00022026002730868C2610262A87910F0EEFDA0
:205F9C0073490028086061D000220260C27200200A681074052308684374002209684A610D
:205FBC00E87A10F0DBFD6B49002808604ED06A4C21782878C91C10FB01F080B210F0CEFD5C
:205FDC0066490028886041D02078002873D0698811FB00F080B210F0C1FD614A0028506072
:205FFC0034D060482278017811FB02F080B210F0B5FD5D490028086028D000250AE0E8B20D
:20601C0010F05CFD00214180816001800223037101736D1C2078E9B28142F0D310F09EFDDD
:20603C0052490028086011D02078400010F096FD4F490028086009D020781C2110FB01F0FB
:20605C0080B210F08BFD4B4A0028106075D02078400110F083FD4849002808606DD02078A9
:20607C00000110F07BFD45490028086065D02078000110F073FD4249002808605DD020784F
:20609C00302510FB05F080B210F068FD3D490028086052D0207810FB05F080B210F05EFD9B
:2060BC0039490028086048D0207810F057FD37490028086041D0364C364D2178287800EB64
:2060DC004100C000103080B210F048FD32490028086032D000F1080141602878227800EB1F
:2060FC004200C000103080B210F038FD2B49086018B300F1080141601E212078401C10FB5B
:20611C0001F080B210F02AFD254A1060A8B1082010F024FD234C206078B1062010F01EFD3F
:20613C00216808602168086838B100204860062010F014FD1C49086008B9072032BD10F0CD
:20615C004DFF00B1002032BD5C1E0020500F0020540F0020440F0020D40F0020343300207E
:20617C00780E0020B81F002070330020340F002068330020980E00209C0E0020A00E002027
:20619C00A40E0020A80E00206C33002080330020F0330020EF3300206C0F0020700F0020EA
:2061BC00680F002088330020400F0020F8B5144600254FF480678D4EC21B84B006F188031E
:2061DC002CD0921E31D0521E37D0521E3CD0521E41D0521E45D0521E62D0921E65D0D21E86
:2061FC0000F09680521E00F0A180921E00F0AA80521E65D0521E00F0AC80521E00F0BA8067
:20621C00521E00F0BD80521E32D0521E41D0D21E00F0C880921E00F0CC80DAE0012905D104
:20623C002078022802DC7070DDE0012940F0CF8020780128FADCB070D5E0012969D12078F4
:20625C0005286EDAF070CEE0012962D1207801285FDC3073C7E010295BD110222146644852
:20627C0014E0012955D12078012852DC3071BAE001294ED1207801284BDC00287071F6D094
:20629C0001203074602206F12801184610F0F4FAA9E001293DD1207801283ADCB072A2E0F3
:2062BC00012936D1207870739DE0002931D111F0CDFA10B9FAF7B1FE1DE00120F07492E049
:2062DC00072926D10622611C02A810F0D1F800950023217801AA02A807F0AEFAB0B9B07A8B
:2062FC0010B911F0B3FA10B1B07A012808D19DF80400FAF7A3FE054650200FF0F7FD1EE047
:20631C00316A9DF80420012088546CE034256AE001295CD1F17B2078022903D0C11F0A29B5
:20633C0002D354E0102852D1B0735CE001294ED1B17C2078B074002908BF012853D1FAF71E
:20635C0018FE50E0012942D1207803283FDC707449E001293BD12078022838DC002836D079
:20637C00F073022803BF1020B0730120002011F051F938E001292AD120780FF0F1FE32E0FE
:20639C00707920BB602907D10CB360222146184610F072FA012003E0012918D1BCB120782E
:2063BC00307420E0012912D18CB120781149087019E061B911F04AFA30B9FAF7D2FE05461C
:2063DC0050200FF093FD0EE0012030750BE0182509E00F2806DA022904D121880DF03CFCE8
:2063FC00054600E00225284605B0F0BDBC160020C4300020F33300202DE9F84FDFF81C9231
:20641C0099F80000002111F005FA040004F1500602D10EF0DFFFF1E0207A30B9204611F0F5
:20643C0001F920460DF0ECFE1AE0217B7C4F491C217330694079B8B1C9B2814214D1387811
:20645C0040210EF09BF900202072204611F0EAF820460DF0D5FEFF224321204611F0AEF969
:20647C00BDE8F14F00F006BA04F14508002088F807000B2510F00BFD7168D1F80320D4F8B9
:20649C0010E022F07F4240F6C41303FB02EE90FBF5F50B2202FB1500D6F800C080B24FF46B
:2064BC007A6148431EFA80F0CCF808003368986820615C48017802290BDB5B4800688168C8
:2064DC0000680A680069116911F0A0F808B10BF0E1FB70684178C80604F1220518D5A17B36
:2064FC00012909D100202072204611F09BF83878022106F0E5FA6CE0306890F8631001F058
:20651C00E00141F0860180F863104849416660E0376807F1020B0020ABF80000217E8BF8DA
:20653C000C10607DC10605D5618BB868A63100EB8100386607F1730A207D8AF815000020EF
:20655C00617D8AF816108AF81800C7F890002888401C288080B208F049FF84F821000022CB
:20657C00617D01F0FE01204611F0C8F80020ABF81C00E17DABF82810ABF8300007F13E00E9
:20659C0094F8211001F03F010170628BB96801EB8201B9630021018298F8002082837168B5
:2065BC004A78910709D5AA886A80A17F01F03F0141F08001A17701218183E07FC10608D527
:2065DC006988B86BA63100EB8100786702218AF80010174A107888B1287F022818BF0328BF
:2065FC000CD1144F38680D3011F0C4F830B93868C11D062204F1300010F03EF900F03AF997
:20661C004CB17068017E480605D54946BDE8F44F032011F00FB8BDE8F18F00BFD50F002098
:20663C00C70F0020EE3300207C33002000204E00880E0020680F00202DE9FE4F884C61786D
:20665C0011B900200EF0C6FE11F014F806464FF0000806F6C4160027824DDFF80C9211E0A0
:20667C00384610F0B9F8417951B12A68817902F8081008F101015FFA81F8314610F0C2FF70
:20669C007F1CFFB299F800008742E9DB6178884505D000200EF09EFE822011F0B3F8607819
:2066BC0001281ED1002701E07F1CFFB299F80000874210DA384610F08FF8064670790028AC
:2066DC00F2D02968B0790A7890421CBF00200EF081FEB079C2E000200EF07CFE822011F050
:2066FC0091F8617828680AF05BFF2868007810F073F800260068D0F804A04FF0010902E0A0
:20671C003E4609F10109771CC1450BDA286810F8090010F061F800684068DAF80810826879
:20673C009142EDD0F6B2002E1CBFF8B2002803D1286890F800B019E0286890F800B00122AA
:20675C004FF4D0710FE0636803F5B176835C11FB03F901FB0BFE36F809C036F80E60B44548
:20677C0038BF9B46521CFBB29A42ECDB4FF6FF7010F044FF0646584610F02EF83B49006874
:20679C00D0F804A00868D94630F8192060684FF4D07300F10E0103FB09F3C85AB2EBD00F9B
:2067BC0055D2720840F6C410424300920027304A0190029218E0584610F00EF801680A78AE
:2067DC00802A03D1DAF81410009A4A6101680B78402B08D1029980790A6802EB40110098D8
:2067FC0000F5A060C8617F1C474530DA2868C05D8345F8D001464FF4D073594363685A184B
:20681C0003F5B173D289595A53088B4202D2521A9045E8DA0FF0E0FF00684268DAF8080069
:20683C009168019B06EBD6725208A1F6C41103FB020010F0EBFE0028BDD00C48006830F826
:20685C001910491C20F81910286810F807B00748026800215B4622F813105846BDE8FE8F76
:20687C00780E0020340F0020D40F0020683300209C0E00202DE9FE4F854D6E681EB9BDE8E4
:20689C00F74F10F0B7BE3078DFF808B2824FDFF80C9201281CBF0228042841F64C5804D099
:2068BC00402818BF802874D0EBE010F05FFA0028FAD0307803F0D6FF824610F097FE044664
:2068DC0099F8010000283DD0FFF7B6FE0FF084FF0190016800914E6894B1504606F084FA19
:2068FC0002280DD09AF800100129DDD118B910F0C1FE4044A0600120A8701121397046E0AD
:20691C000098017880290BD10820654938700A787069012A1ABFDBF82410097801210AE054
